{
  "_format": "hh-sol-artifact-1",
  "contractName": "GreenH2Credits",
  "sourceName": "contracts/GreenH2Credits.sol",
  "abi": [
    {
      "inputs": [],
      "stateMutability": "nonpayable",
      "type": "constructor"
    },
    {
      "anonymous": false,
      "inputs": [
        {
          "indexed": true,
          "internalType": "uint256",
          "name": "id",
          "type": "uint256"
        },
        {
          "indexed": true,
          "internalType": "address",
          "name": "producer",
          "type": "address"
        },
        {
          "indexed": false,
          "internalType": "bytes32",
          "name": "certHash",
          "type": "bytes32"
        },
        {
          "indexed": false,
          "internalType": "uint256",
          "name": "amount",
          "type": "uint256"
        }
      ],
      "name": "MintRequested",
      "type": "event"
    },
    {
      "anonymous": false,
      "inputs": [
        {
          "indexed": true,
          "internalType": "uint256",
          "name": "id",
          "type": "uint256"
        },
        {
          "indexed": true,
          "internalType": "address",
          "name": "producer",
          "type": "address"
        },
        {
          "indexed": false,
          "internalType": "uint256",
          "name": "amount",
          "type": "uint256"
        }
      ],
      "name": "Minted",
      "type": "event"
    },
    {
      "anonymous": false,
      "inputs": [
        {
          "indexed": true,
          "internalType": "address",
          "name": "who",
          "type": "address"
        },
        {
          "indexed": false,
          "internalType": "uint256",
          "name": "amount",
          "type": "uint256"
        },
        {
          "indexed": false,
          "internalType": "string",
          "name": "reason",
          "type": "string"
        }
      ],
      "name": "Retired",
      "type": "event"
    },
    {
      "anonymous": false,
      "inputs": [
        {
          "indexed": true,
          "internalType": "address",
          "name": "who",
          "type": "address"
        },
        {
          "indexed": false,
          "internalType": "enum GreenH2Credits.Role",
          "name": "role",
          "type": "uint8"
        }
      ],
      "name": "RoleUpdated",
      "type": "event"
    },
    {
      "anonymous": false,
      "inputs": [
        {
          "indexed": true,
          "internalType": "address",
          "name": "from",
          "type": "address"
        },
        {
          "indexed": true,
          "internalType": "address",
          "name": "to",
          "type": "address"
        },
        {
          "indexed": false,
          "internalType": "uint256",
          "name": "amount",
          "type": "uint256"
        }
      ],
      "name": "Transferred",
      "type": "event"
    },
    {
      "inputs": [
        {
          "internalType": "uint256",
          "name": "id",
          "type": "uint256"
        }
      ],
      "name": "approveAndMint",
      "outputs": [],
      "stateMutability": "nonpayable",
      "type": "function"
    },
    {
      "inputs": [
        {
          "internalType": "address",
          "name": "",
          "type": "address"
        }
      ],
      "name": "balance",
      "outputs": [
        {
          "internalType": "uint256",
          "name": "",
          "type": "uint256"
        }
      ],
      "stateMutability": "view",
      "type": "function"
    },
    {
      "inputs": [],
      "name": "getRequestsCount",
      "outputs": [
        {
          "internalType": "uint256",
          "name": "",
          "type": "uint256"
        }
      ],
      "stateMutability": "view",
      "type": "function"
    },
    {
      "inputs": [],
      "name": "owner",
      "outputs": [
        {
          "internalType": "address",
          "name": "",
          "type": "address"
        }
      ],
      "stateMutability": "view",
      "type": "function"
    },
    {
      "inputs": [
        {
          "internalType": "bytes32",
          "name": "certHash",
          "type": "bytes32"
        },
        {
          "internalType": "uint256",
          "name": "amount",
          "type": "uint256"
        }
      ],
      "name": "requestMint",
      "outputs": [],
      "stateMutability": "nonpayable",
      "type": "function"
    },
    {
      "inputs": [
        {
          "internalType": "uint256",
          "name": "",
          "type": "uint256"
        }
      ],
      "name": "requests",
      "outputs": [
        {
          "internalType": "address",
          "name": "producer",
          "type": "address"
        },
        {
          "internalType": "bytes32",
          "name": "certHash",
          "type": "bytes32"
        },
        {
          "internalType": "uint256",
          "name": "amount",
          "type": "uint256"
        },
        {
          "internalType": "bool",
          "name": "approved",
          "type": "bool"
        }
      ],
      "stateMutability": "view",
      "type": "function"
    },
    {
      "inputs": [
        {
          "internalType": "uint256",
          "name": "amount",
          "type": "uint256"
        },
        {
          "internalType": "string",
          "name": "reason",
          "type": "string"
        }
      ],
      "name": "retire",
      "outputs": [],
      "stateMutability": "nonpayable",
      "type": "function"
    },
    {
      "inputs": [
        {
          "internalType": "address",
          "name": "",
          "type": "address"
        }
      ],
      "name": "roles",
      "outputs": [
        {
          "internalType": "enum GreenH2Credits.Role",
          "name": "",
          "type": "uint8"
        }
      ],
      "stateMutability": "view",
      "type": "function"
    },
    {
      "inputs": [
        {
          "internalType": "address",
          "name": "who",
          "type": "address"
        },
        {
          "internalType": "enum GreenH2Credits.Role",
          "name": "r",
          "type": "uint8"
        }
      ],
      "name": "setRole",
      "outputs": [],
      "stateMutability": "nonpayable",
      "type": "function"
    },
    {
      "inputs": [
        {
          "internalType": "address",
          "name": "to",
          "type": "address"
        },
        {
          "internalType": "uint256",
          "name": "amount",
          "type": "uint256"
        }
      ],
      "name": "transfer",
      "outputs": [],
      "stateMutability": "nonpayable",
      "type": "function"
    }
  ],
  "bytecode": "0x608060405234801561001057600080fd5b5033600360006101000a81548173ffffffffffffffffffffffffffffffffffffffff021916908373ffffffffffffffffffffffffffffffffffffffff16021790555061131c806100616000396000f3fe608060405234801561001057600080fd5b506004361061009e5760003560e01c80638e1e8732116100665780638e1e87321461014a5780639752cbe6146101665780639937464214610182578063a9059cbb146101b2578063e3d670d7146101ce5761009e565b80633410452a146100a3578063571c3e60146100c15780635f09ffbd146100dd57806381d12c58146100f95780638da5cb5b1461012c575b600080fd5b6100ab6101fe565b6040516100b89190610b37565b60405180910390f35b6100db60048036038101906100d69190610bdf565b61020b565b005b6100f760048036038101906100f29190610cb0565b610353565b005b610113600480360381019061010e9190610d10565b610482565b6040516101239493929190610d80565b60405180910390f35b6101346104ef565b6040516101419190610dc5565b60405180910390f35b610164600480360381019061015f9190610d10565b610515565b005b610180600480360381019061017b9190610e0c565b610755565b005b61019c60048036038101906101979190610e4c565b61094f565b6040516101a99190610ef0565b60405180910390f35b6101cc60048036038101906101c79190610f0b565b61096f565b005b6101e860048036038101906101e39190610e4c565b610b06565b6040516101f59190610b37565b60405180910390f35b6000600280549050905090565b600360009054906101000a900473ffffffffffffffffffffffffffffffffffffffff1673ffffffffffffffffffffffffffffffffffffffff163373ffffffffffffffffffffffffffffffffffffffff161461029b576040517f08c379a000000000000000000000000000000000000000000000000000000000815260040161029290610fa8565b60405180910390fd5b806000808473ffffffffffffffffffffffffffffffffffffffff1673ffffffffffffffffffffffffffffffffffffffff16815260200190815260200160002060006101000a81548160ff021916908360038111156102fc576102fb610e79565b5b02179055508173ffffffffffffffffffffffffffffffffffffffff167fc3f8f61911a1537261f77e2703626e158e299a98e341024ecaa26bbd1d884c64826040516103479190610ef0565b60405180910390a25050565b82600160003373ffffffffffffffffffffffffffffffffffffffff1673ffffffffffffffffffffffffffffffffffffffff1681526020019081526020016000205410156103d5576040517f08c379a00000000000000000000000000000000000000000000000000000000081526004016103cc90611014565b60405180910390fd5b82600160003373ffffffffffffffffffffffffffffffffffffffff1673ffffffffffffffffffffffffffffffffffffffff16815260200190815260200160002060008282546104249190611063565b925050819055503373ffffffffffffffffffffffffffffffffffffffff167f930343bf084b72b66840daeddb44ac5c801021e10b7a7b4a25bd58a913387bc5848484604051610475939291906110e4565b60405180910390a2505050565b6002818154811061049257600080fd5b90600052602060002090600402016000915090508060000160009054906101000a900473ffffffffffffffffffffffffffffffffffffffff16908060010154908060020154908060030160009054906101000a900460ff16905084565b600360009054906101000a900473ffffffffffffffffffffffffffffffffffffffff1681565b6002600381111561052957610528610e79565b5b6000803373ffffffffffffffffffffffffffffffffffffffff1673ffffffffffffffffffffffffffffffffffffffff16815260200190815260200160002060009054906101000a900460ff16600381111561058757610586610e79565b5b146105c7576040517f08c379a00000000000000000000000000000000000000000000000000000000081526004016105be90611162565b60405180910390fd5b6000600282815481106105dd576105dc611182565b5b906000526020600020906004020190508060030160009054906101000a900460ff161561063f576040517f08c379a0000000000000000000000000000000000000000000000000000000008152600401610636906111fd565b60405180910390fd5b60018160030160006101000a81548160ff0219169083151502179055508060020154600160008360000160009054906101000a900473ffffffffffffffffffffffffffffffffffffffff1673ffffffffffffffffffffffffffffffffffffffff1673ffffffffffffffffffffffffffffffffffffffff16815260200190815260200160002060008282546106d3919061121d565b925050819055508060000160009054906101000a900473ffffffffffffffffffffffffffffffffffffffff1673ffffffffffffffffffffffffffffffffffffffff16827fc9d0543a84d3510329c0783b91576878ceb484e8699944cb5610c3436b3b8e3983600201546040516107499190610b37565b60405180910390a35050565b6001600381111561076957610768610e79565b5b6000803373ffffffffffffffffffffffffffffffffffffffff1673ffffffffffffffffffffffffffffffffffffffff16815260200190815260200160002060009054906101000a900460ff1660038111156107c7576107c6610e79565b5b14610807576040517f08c379a00000000000000000000000000000000000000000000000000000000081526004016107fe9061129d565b60405180910390fd5b600260405180608001604052803373ffffffffffffffffffffffffffffffffffffffff16815260200184815260200183815260200160001515815250908060018154018082558091505060019003906000526020600020906004020160009091909190915060008201518160000160006101000a81548173ffffffffffffffffffffffffffffffffffffffff021916908373ffffffffffffffffffffffffffffffffffffffff160217905550602082015181600101556040820151816002015560608201518160030160006101000a81548160ff02191690831515021790555050503373ffffffffffffffffffffffffffffffffffffffff1660016002805490506109129190611063565b7f80cf5742efd919dc632cb0be53ce753b2cb971147db2cb8b88e979aa8345912084846040516109439291906112bd565b60405180910390a35050565b60006020528060005260406000206000915054906101000a900460ff1681565b80600160003373ffffffffffffffffffffffffffffffffffffffff1673ffffffffffffffffffffffffffffffffffffffff1681526020019081526020016000205410156109f1576040517f08c379a00000000000000000000000000000000000000000000000000000000081526004016109e890611014565b60405180910390fd5b80600160003373ffffffffffffffffffffffffffffffffffffffff1673ffffffffffffffffffffffffffffffffffffffff1681526020019081526020016000206000828254610a409190611063565b9250508190555080600160008473ffffffffffffffffffffffffffffffffffffffff1673ffffffffffffffffffffffffffffffffffffffff1681526020019081526020016000206000828254610a96919061121d565b925050819055508173ffffffffffffffffffffffffffffffffffffffff163373ffffffffffffffffffffffffffffffffffffffff167fd1ba4ac2e2a11b5101f6cb4d978f514a155b421e8ec396d2d9abaf0bb02917ee83604051610afa9190610b37565b60405180910390a35050565b60016020528060005260406000206000915090505481565b6000819050919050565b610b3181610b1e565b82525050565b6000602082019050610b4c6000830184610b28565b92915050565b600080fd5b600080fd5b600073ffffffffffffffffffffffffffffffffffffffff82169050919050565b6000610b8782610b5c565b9050919050565b610b9781610b7c565b8114610ba257600080fd5b50565b600081359050610bb481610b8e565b92915050565b60048110610bc757600080fd5b50565b600081359050610bd981610bba565b92915050565b60008060408385031215610bf657610bf5610b52565b5b6000610c0485828601610ba5565b9250506020610c1585828601610bca565b9150509250929050565b610c2881610b1e565b8114610c3357600080fd5b50565b600081359050610c4581610c1f565b92915050565b600080fd5b600080fd5b600080fd5b60008083601f840112610c7057610c6f610c4b565b5b8235905067ffffffffffffffff811115610c8d57610c8c610c50565b5b602083019150836001820283011115610ca957610ca8610c55565b5b9250929050565b600080600060408486031215610cc957610cc8610b52565b5b6000610cd786828701610c36565b935050602084013567ffffffffffffffff811115610cf857610cf7610b57565b5b610d0486828701610c5a565b92509250509250925092565b600060208284031215610d2657610d25610b52565b5b6000610d3484828501610c36565b91505092915050565b610d4681610b7c565b82525050565b6000819050919050565b610d5f81610d4c565b82525050565b60008115159050919050565b610d7a81610d65565b82525050565b6000608082019050610d956000830187610d3d565b610da26020830186610d56565b610daf6040830185610b28565b610dbc6060830184610d71565b95945050505050565b6000602082019050610dda6000830184610d3d565b92915050565b610de981610d4c565b8114610df457600080fd5b50565b600081359050610e0681610de0565b92915050565b60008060408385031215610e2357610e22610b52565b5b6000610e3185828601610df7565b9250506020610e4285828601610c36565b9150509250929050565b600060208284031215610e6257610e61610b52565b5b6000610e7084828501610ba5565b91505092915050565b7f4e487b7100000000000000000000000000000000000000000000000000000000600052602160045260246000fd5b60048110610eb957610eb8610e79565b5b50565b6000819050610eca82610ea8565b919050565b6000610eda82610ebc565b9050919050565b610eea81610ecf565b82525050565b6000602082019050610f056000830184610ee1565b92915050565b60008060408385031215610f2257610f21610b52565b5b6000610f3085828601610ba5565b9250506020610f4185828601610c36565b9150509250929050565b600082825260208201905092915050565b7f6e6f74206f776e65720000000000000000000000000000000000000000000000600082015250565b6000610f92600983610f4b565b9150610f9d82610f5c565b602082019050919050565b60006020820190508181036000830152610fc181610f85565b9050919050565b7f696e73756666696369656e740000000000000000000000000000000000000000600082015250565b6000610ffe600c83610f4b565b915061100982610fc8565b602082019050919050565b6000602082019050818103600083015261102d81610ff1565b9050919050565b7f4e487b7100000000000000000000000000000000000000000000000000000000600052601160045260246000fd5b600061106e82610b1e565b915061107983610b1e565b925082820390508181111561109157611090611034565b5b92915050565b82818337600083830152505050565b6000601f19601f8301169050919050565b60006110c38385610f4b565b93506110d0838584611097565b6110d9836110a6565b840190509392505050565b60006040820190506110f96000830186610b28565b818103602083015261110c8184866110b7565b9050949350505050565b7f6e6f742063657274696669657200000000000000000000000000000000000000600082015250565b600061114c600d83610f4b565b915061115782611116565b602082019050919050565b6000602082019050818103600083015261117b8161113f565b9050919050565b7f4e487b7100000000000000000000000000000000000000000000000000000000600052603260045260246000fd5b7f616c726561647900000000000000000000000000000000000000000000000000600082015250565b60006111e7600783610f4b565b91506111f2826111b1565b602082019050919050565b60006020820190508181036000830152611216816111da565b9050919050565b600061122882610b1e565b915061123383610b1e565b925082820190508082111561124b5761124a611034565b5b92915050565b7f6e6f742070726f64756365720000000000000000000000000000000000000000600082015250565b6000611287600c83610f4b565b915061129282611251565b602082019050919050565b600060208201905081810360008301526112b68161127a565b9050919050565b60006040820190506112d26000830185610d56565b6112df6020830184610b28565b939250505056fea26469706673582212201d59b1f95f57e51b9dca82c9d48230a419179a4abe47788be5a6bf13bbc5b4d164736f6c63430008140033",
  "linkReferences": {},
  "deployedLinkReferences": {}
}